:100000000C945D000C9485000C9485000C94850084
:100010000C9485000C9485000C9485000C9485004C
:100020000C9485000C9485000C9485000C9485003C
:100030000C9485000C9485000C9485000C9485002C
:100040000C945A020C9485000C94CA020C94A402DD
:100050000C9485000C9485000C9485000C9485000C
:100060000C9485000C94850000000008000201003B
:100070000003040700000000000000000000000072
:10008000250028002B0000000000240027002A0083
:10009000040404040404040402020202020203032E
:1000A0000303030301020408102040800102040836
:1000B0001020010204081020BD0411241FBECFEF40
:1000C000D8E0DEBFCDBF11E0A0E0B1E0E4EEF9E0A2
:1000D00002C005900D92A231B107D9F721E0A2E14B
:1000E000B1E001C01D92AF3BB207E1F710E0CDE5F2
:1000F000D0E004C02197FE010E94EA04CC35D1076C
:10010000C9F70E94FC020C94F0040C94000090E0EB
:10011000FC01EC55FF4F249180579F4FFC018491C7
:10012000882399F090E0880F991FFC01EA57FF4F50
:10013000A591B491FC01E458FF4F859194918FB73C
:10014000F894EC91E22BEC938FBF089590E0FC01C2
:10015000E859FF4F2491FC01EC55FF4F3491FC010D
:10016000E057FF4FE491EE23C9F0222339F023300A
:1001700001F1A8F4213019F1223029F1F0E0EE0F5D
:10018000FF1FE458FF4FA591B4918FB7F894EC91FD
:10019000611126C030953E233C938FBF08952730D0
:1001A000A9F02830C9F0243049F7809180008F7D74
:1001B00003C0809180008F7780938000DFCF84B56B
:1001C0008F7784BDDBCF84B58F7DFBCF8091B0006E
:1001D0008F778093B000D2CF8091B0008F7DF9CF20
:1001E0003E2BDACF3FB7F8948091BB019091BC01D0
:1001F000A091BD01B091BE0126B5A89B05C02F3FBF
:1002000019F00196A11DB11D3FBFBA2FA92F982F3C
:100210008827BC01CD01620F711D811D911D42E037
:10022000660F771F881F991F4A95D1F708958F92FF
:100230009F92AF92BF92CF92DF92EF92FF920E9475
:10024000F2004B015C0188EEC82E83E0D82EE12C31
:10025000F12C0E94F200681979098A099B09683E0D
:10026000734081059105A8F321E0C21AD108E10885
:10027000F10888EE880E83E0981EA11CB11CC11401
:10028000D104E104F10429F7FF90EF90DF90CF90C3
:10029000BF90AF909F908F900895AF92BF92CF92F2
:1002A000DF92EF92FF920F931F93CF93DF936C0136
:1002B0007B018B01040F151FEB015E01AE18BF0817
:1002C000C017D10759F06991D601ED91FC910190C9
:1002D000F081E02DC6010995892B79F7C501DF91E1
:1002E000CF911F910F91FF90EF90DF90CF90BF9033
:1002F000AF900895FC01538D448D252F30E0842F5D
:1003000090E0821B930B541710F0CF96089501973D
:100310000895FC01918D828D981761F0A28DAE0F2A
:10032000BF2FB11D5D968C91928D9F5F9F73928FB1
:1003300090E008958FEF9FEF0895FC01918D828DDD
:10034000981731F0828DE80FF11D858D90E00895AA
:100350008FEF9FEF0895FC01918D228D892F90E002
:10036000805C9F4F821B91098F739927089589E1C3
:1003700091E00E94AB0121E0892B09F420E0822F5B
:10038000089580E090E0892B29F00E94B701811147
:100390000C9400000895FC01A48DA80FB92FB11D85
:1003A000A35ABF4F2C91848D90E001968F739927AB
:1003B000848FA689B7892C93A089B1898C91837089
:1003C00080648C93938D848D981306C00288F38982
:1003D000E02D80818F7D80830895EF92FF920F93AF
:1003E0001F93CF93DF93EC0181E0888F9B8D8C8DE1
:1003F00098131AC0E889F989808185FF15C09FB7D5
:10040000F894EE89FF896083E889F9898081837097
:10041000806480839FBF81E090E0DF91CF911F9146
:100420000F91FF90EF900895F62E0B8D10E00F5F67
:100430001F4F0F731127E02E8C8D8E110CC00FB63D
:1004400007FCFACFE889F989808185FFF5CFCE01D5
:100450000E94CB01F1CFEB8DEC0FFD2FF11DE35A84
:10046000FF4FF0829FB7F8940B8FEA89FB89808158
:100470008062CFCFCF93DF93EC01888D8823B9F0D2
:10048000AA89BB89E889F9898C9185FD03C080819F
:1004900086FD0DC00FB607FCF7CF8C9185FFF2CF1C
:1004A000808185FFEDCFCE010E94CB01E9CFDF91A6
:1004B000CF9108951F920F920FB60F9211242F9390
:1004C0003F938F939F93AF93BF938091B701909188
:1004D000B801A091B901B091BA013091B60123E001
:1004E000230F2D3758F50196A11DB11D2093B6019C
:1004F0008093B7019093B801A093B901B093BA016A
:100500008091BB019091BC01A091BD01B091BE0151
:100510000196A11DB11D8093BB019093BC01A093D6
:10052000BD01B093BE01BF91AF919F918F913F915B
:100530002F910F900FBE0F901F90189526E8230F54
:100540000296A11DB11DD2CF1F920F920FB60F922E
:1005500011242F933F934F935F936F937F938F93C8
:100560009F93AF93BF93EF93FF9389E191E00E9434
:10057000CB01FF91EF91BF91AF919F918F917F91AF
:100580006F915F914F913F912F910F900FBE0F9000
:100590001F9018951F920F920FB60F9211242F9350
:1005A0008F939F93EF93FF93E0912901F0912A019C
:1005B0008081E0912F01F091300182FD1BC090817C
:1005C000809132018F5F8F7320913301821741F048
:1005D000E0913201F0E0E75EFE4F958F80933201AB
:1005E000FF91EF919F918F912F910F900FBE0F90E0
:1005F0001F9018958081F4CF789484B5826084BD73
:1006000084B5816084BD85B5826085BD85B5816016
:1006100085BD80916E00816080936E001092810094
:10062000809181008260809381008091810081604F
:100630008093810080918000816080938000809110
:10064000B10084608093B1008091B000816080939C
:10065000B00080917A00846080937A0080917A0063
:10066000826080937A0080917A00816080937A0022
:1006700080917A00806880937A001092C10085E0B2
:100680000E94870086E00E94870089E00E94870020
:10069000E0912901F0912A0182E08083E091250117
:1006A000F09126011082E0912701F09128018FEC52
:1006B000808310923101E0912D01F0912E0186E0AE
:1006C0008083E0912B01F0912C01808180618083F7
:1006D000E0912B01F0912C01808188608083E09172
:1006E0002B01F0912C01808180688083E0912B01A7
:1006F000F0912C0180818F7D808348E0442E512C25
:1007000057E0652E712CC6E0D0E083E0C82ED12CD6
:1007100092E0A92EB12C88248394912C3324339415
:1007200030E0E32E30E0F32E89E191E00E94AB014E
:100730001816190604F589E191E00E9489018B30B1
:10074000A8F4E82FF0E0E955FC4F0C94EA04B2035A
:10075000030408040D0412041904200425042A04C7
:100760002F0432041092180110921701682F89E1AA
:1007700091E00E94ED018FB7F8944091B70150913C
:10078000B8016091B9017091BA018FBFE091170172
:10079000F0911801CF010497079710F5809113018C
:1007A00090911401A0911501B09116018A019B014D
:1007B000081B190B2A0B3B0BD901C801883E93403B
:1007C000A105B10568F040931301509314016093A3
:1007D00015017093160180911201832580931201F7
:1007E000EB30F10508F04DC0E850FC4F0C94EA04E2
:1007F00035044D044F0455045F0462046904740415
:100800008104890492049092180180921701AECF5E
:10081000B0921801A0921701A9CFD0921801C092EE
:100820001701A4CF04E010E0109318010093170102
:100830009DCF25E030E0309318012093170196CF2B
:10084000D0931801C093170191CF70921801609254
:1008500017018CCF509218014092170187CF09E001
:1008600010E0E2CF2AE030E0E6CF60E085E00E94D1
:10087000A60060E086E00E94A60060E089E00E9499
:10088000A600E114F10409F44FCF0E94B7018823B8
:1008900009F43BCF0E94000038CF61E0E7CF60E071
:1008A00085E00E94A60061E0E5CF60E085E00E945F
:1008B000A60060E086E00E94A60061E0DFCF6091C4
:1008C0001201D4CF60E085E00E94A6006091120181
:1008D000D1CF60E085E00E94A60060E086E00E9443
:1008E000A60060911201CACF20901201622D85E00E
:1008F0000E94A60060E086E00E94A600622D6325AB
:10090000BDCF60E085E00E94A60020901201622D1C
:10091000F2CF20901201622D85E00E94A600622D88
:100920006325A8CF61E085E00E94A60060E086E034
:100930000E94A60060E089E00E94A6000E941701C4
:1009400060E085E00E94A60061E086E00E94A600CB
:1009500060E089E00E94A6000E94170160E085E047
:100960000E94A60060E086E00E94A60061E089E0A7
:100970000E94A6000E94170184CFE9E1F1E01382F2
:10098000128288EE93E0A0E0B0E084839583A68392
:10099000B78384E091E09183808385EC90E0958734
:1009A000848784EC90E09787868780EC90E0918B39
:1009B000808B81EC90E0938B828B82EC90E0958B26
:1009C000848B86EC90E0978B868B118E128E138E23
:1009D000148E0895EE0FFF1F0590F491E02D0994F9
:0409E000F894FFCFB9
:1009E40000000000ED014D017A013A02AB018901DA
:0209F4009D0163
:00000001FF
